{
  "_format": "hh-sol-artifact-1",
  "contractName": "Dwitter",
  "sourceName": "contracts/Dwitter.sol",
  "abi": [
    {
      "inputs": [],
      "name": "name",
      "outputs": [
        {
          "internalType": "string",
          "name": "",
          "type": "string"
        }
      ],
      "stateMutability": "view",
      "type": "function"
    },
    {
      "inputs": [
        {
          "internalType": "string",
          "name": "_name",
          "type": "string"
        }
      ],
      "name": "setName",
      "outputs": [],
      "stateMutability": "nonpayable",
      "type": "function"
    }
  ],
  "bytecode": "0x60806040526040518060400160405280600681526020017f63686972616700000000000000000000000000000000000000000000000000008152506000908051906020019061004f929190610062565b5034801561005c57600080fd5b50610166565b82805461006e90610105565b90600052602060002090601f01602090048101928261009057600085556100d7565b82601f106100a957805160ff19168380011785556100d7565b828001600101855582156100d7579182015b828111156100d65782518255916020019190600101906100bb565b5b5090506100e491906100e8565b5090565b5b808211156101015760008160009055506001016100e9565b5090565b6000600282049050600182168061011d57607f821691505b6020821081141561013157610130610137565b5b50919050565b7f4e487b7100000000000000000000000000000000000000000000000000000000600052602260045260246000fd5b610480806101756000396000f3fe608060405234801561001057600080fd5b50600436106100365760003560e01c806306fdde031461003b578063c47f002714610059575b600080fd5b610043610075565b60405161005091906102a2565b60405180910390f35b610073600480360381019061006e9190610228565b610103565b005b6000805461008290610378565b80601f01602080910402602001604051908101604052809291908181526020018280546100ae90610378565b80156100fb5780601f106100d0576101008083540402835291602001916100fb565b820191906000526020600020905b8154815290600101906020018083116100de57829003601f168201915b505050505081565b806000908051906020019061011992919061011d565b5050565b82805461012990610378565b90600052602060002090601f01602090048101928261014b5760008555610192565b82601f1061016457805160ff1916838001178555610192565b82800160010185558215610192579182015b82811115610191578251825591602001919060010190610176565b5b50905061019f91906101a3565b5090565b5b808211156101bc5760008160009055506001016101a4565b5090565b60006101d36101ce846102e9565b6102c4565b9050828152602081018484840111156101eb57600080fd5b6101f6848285610336565b509392505050565b600082601f83011261020f57600080fd5b813561021f8482602086016101c0565b91505092915050565b60006020828403121561023a57600080fd5b600082013567ffffffffffffffff81111561025457600080fd5b610260848285016101fe565b91505092915050565b60006102748261031a565b61027e8185610325565b935061028e818560208601610345565b61029781610439565b840191505092915050565b600060208201905081810360008301526102bc8184610269565b905092915050565b60006102ce6102df565b90506102da82826103aa565b919050565b6000604051905090565b600067ffffffffffffffff8211156103045761030361040a565b5b61030d82610439565b9050602081019050919050565b600081519050919050565b600082825260208201905092915050565b82818337600083830152505050565b60005b83811015610363578082015181840152602081019050610348565b83811115610372576000848401525b50505050565b6000600282049050600182168061039057607f821691505b602082108114156103a4576103a36103db565b5b50919050565b6103b382610439565b810181811067ffffffffffffffff821117156103d2576103d161040a565b5b80604052505050565b7f4e487b7100000000000000000000000000000000000000000000000000000000600052602260045260246000fd5b7f4e487b7100000000000000000000000000000000000000000000000000000000600052604160045260246000fd5b6000601f19601f830116905091905056fea2646970667358221220cafb8b24180ca5477f530c5dacac9449f7610e7e38b14bd11fd27e54ed066f4e64736f6c63430008040033",
  "linkReferences": {},
  "deployedLinkReferences": {}
}